{
  "contractName": "MasterMex",
  "abi": [
    {
      "inputs": [],
      "stateMutability": "nonpayable",
      "type": "constructor"
    },
    {
      "anonymous": false,
      "inputs": [
        {
          "indexed": true,
          "internalType": "address",
          "name": "sender",
          "type": "address"
        },
        {
          "indexed": false,
          "internalType": "uint256",
          "name": "amount",
          "type": "uint256"
        }
      ],
      "name": "Deposit",
      "type": "event"
    },
    {
      "anonymous": false,
      "inputs": [
        {
          "indexed": true,
          "internalType": "address",
          "name": "receiver",
          "type": "address"
        },
        {
          "indexed": false,
          "internalType": "uint256",
          "name": "amount",
          "type": "uint256"
        }
      ],
      "name": "Loss",
      "type": "event"
    },
    {
      "anonymous": false,
      "inputs": [
        {
          "indexed": true,
          "internalType": "address",
          "name": "sender",
          "type": "address"
        },
        {
          "indexed": false,
          "internalType": "uint256",
          "name": "amount",
          "type": "uint256"
        }
      ],
      "name": "Receive",
      "type": "event"
    },
    {
      "anonymous": false,
      "inputs": [
        {
          "indexed": true,
          "internalType": "address",
          "name": "receiver",
          "type": "address"
        },
        {
          "indexed": false,
          "internalType": "uint256",
          "name": "amount",
          "type": "uint256"
        }
      ],
      "name": "Reward",
      "type": "event"
    },
    {
      "anonymous": false,
      "inputs": [
        {
          "indexed": true,
          "internalType": "address",
          "name": "sender",
          "type": "address"
        },
        {
          "indexed": true,
          "internalType": "uint8",
          "name": "voteId",
          "type": "uint8"
        }
      ],
      "name": "SetGroup",
      "type": "event"
    },
    {
      "anonymous": false,
      "inputs": [
        {
          "indexed": true,
          "internalType": "address",
          "name": "sender",
          "type": "address"
        },
        {
          "indexed": false,
          "internalType": "uint256",
          "name": "amount",
          "type": "uint256"
        }
      ],
      "name": "Withdraw",
      "type": "event"
    },
    {
      "inputs": [],
      "name": "decimals",
      "outputs": [
        {
          "internalType": "uint256",
          "name": "",
          "type": "uint256"
        }
      ],
      "stateMutability": "view",
      "type": "function"
    },
    {
      "inputs": [],
      "name": "poolInfo",
      "outputs": [
        {
          "internalType": "address",
          "name": "tokenUniPair",
          "type": "address"
        },
        {
          "internalType": "uint256",
          "name": "priceRatio",
          "type": "uint256"
        },
        {
          "internalType": "uint8",
          "name": "minLeverage",
          "type": "uint8"
        },
        {
          "internalType": "uint8",
          "name": "maxLeverage",
          "type": "uint8"
        }
      ],
      "stateMutability": "view",
      "type": "function"
    },
    {
      "inputs": [
        {
          "internalType": "address",
          "name": "",
          "type": "address"
        }
      ],
      "name": "userInfo",
      "outputs": [
        {
          "internalType": "uint256",
          "name": "amount",
          "type": "uint256"
        },
        {
          "internalType": "uint256",
          "name": "pending",
          "type": "uint256"
        },
        {
          "internalType": "uint256",
          "name": "debt",
          "type": "uint256"
        },
        {
          "internalType": "uint8",
          "name": "groupId",
          "type": "uint8"
        }
      ],
      "stateMutability": "view",
      "type": "function"
    },
    {
      "stateMutability": "payable",
      "type": "receive"
    },
    {
      "inputs": [
        {
          "internalType": "uint8",
          "name": "_groupId",
          "type": "uint8"
        }
      ],
      "name": "setGroup",
      "outputs": [],
      "stateMutability": "nonpayable",
      "type": "function"
    },
    {
      "inputs": [
        {
          "internalType": "uint8",
          "name": "_groupId",
          "type": "uint8"
        }
      ],
      "name": "getGroup",
      "outputs": [
        {
          "internalType": "uint256",
          "name": "totalAmt",
          "type": "uint256"
        },
        {
          "internalType": "uint256",
          "name": "depositAmt",
          "type": "uint256"
        },
        {
          "internalType": "uint256",
          "name": "profitAmt",
          "type": "uint256"
        },
        {
          "internalType": "uint256",
          "name": "lossAmt",
          "type": "uint256"
        },
        {
          "internalType": "uint256",
          "name": "shareProfitPerETH",
          "type": "uint256"
        },
        {
          "internalType": "uint256",
          "name": "extra",
          "type": "uint256"
        }
      ],
      "stateMutability": "view",
      "type": "function"
    },
    {
      "inputs": [],
      "name": "getPool",
      "outputs": [
        {
          "internalType": "uint256",
          "name": "priceRatio",
          "type": "uint256"
        }
      ],
      "stateMutability": "view",
      "type": "function"
    },
    {
      "inputs": [],
      "name": "deposit",
      "outputs": [],
      "stateMutability": "nonpayable",
      "type": "function"
    },
    {
      "inputs": [],
      "name": "withdraw",
      "outputs": [],
      "stateMutability": "nonpayable",
      "type": "function"
    },
    {
      "inputs": [],
      "name": "claim",
      "outputs": [],
      "stateMutability": "nonpayable",
      "type": "function"
    },
    {
      "inputs": [
        {
          "internalType": "address",
          "name": "_user",
          "type": "address"
        }
      ],
      "name": "getBalance",
      "outputs": [
        {
          "internalType": "uint256",
          "name": "total",
          "type": "uint256"
        }
      ],
      "stateMutability": "view",
      "type": "function"
    },
    {
      "inputs": [],
      "name": "getPriceInfo",
      "outputs": [
        {
          "internalType": "uint256",
          "name": "_priceChange",
          "type": "uint256"
        },
        {
          "internalType": "uint256",
          "name": "_precision",
          "type": "uint256"
        },
        {
          "internalType": "uint8",
          "name": "_winGroupId",
          "type": "uint8"
        },
        {
          "internalType": "uint8",
          "name": "_defGroupId",
          "type": "uint8"
        }
      ],
      "stateMutability": "nonpayable",
      "type": "function"
    },
    {
      "inputs": [],
      "name": "predict",
      "outputs": [
        {
          "internalType": "bool",
          "name": "",
          "type": "bool"
        }
      ],
      "stateMutability": "nonpayable",
      "type": "function"
    }
  ],
  "bytecode": "0x608060405260126000553480156200001657600080fd5b5073e32479d25b6cb8c02507c3568813e11a37fa32ca600160000160006101000a81548173ffffffffffffffffffffffffffffffffffffffff021916908373ffffffffffffffffffffffffffffffffffffffff1602179055506200007f6200008960201b60201c565b5050505062000573565b600080600080600080600160000160009054906101000a900473ffffffffffffffffffffffffffffffffffffffff1673ffffffffffffffffffffffffffffffffffffffff16630902f1ac6040518163ffffffff1660e01b815260040160606040518083038186803b158015620000fe57600080fd5b505afa15801562000113573d6000803e3d6000fd5b505050506040513d60608110156200012a57600080fd5b81019080805190602001909291908051906020019092919080519060200190929190505050506dffffffffffffffffffffffffffff1691506dffffffffffffffffffffffffffff169150620001ac8162000198600054600a0a85620002b560201b620015101790919060201c565b6200034060201b620015961790919060201c565b905080600180015410620001e857620001d88160018001546200039260201b620015e01790919060201c565b9550600193506000925062000211565b620002066001800154826200039260201b620015e01790919060201c565b955060009350600192505b60006001800154111562000263576200023d6001800154876200034060201b620015961790919060201c565b95506200025b61271087620002b560201b620015101790919060201c565b9550620002a0565b6200029d61271062000289600054600a0a896200034060201b620015961790919060201c565b620002b560201b620015101790919060201c565b95505b60029450806001800181905550505090919293565b600080831415620002ca57600090506200033a565b6000828402905082848281620002dc57fe5b041462000335576040517f08c379a0000000000000000000000000000000000000000000000000000000008152600401808060200182810382526021815260200180620020906021913960400191505060405180910390fd5b809150505b92915050565b60006200038a83836040518060400160405280601a81526020017f536166654d6174683a206469766973696f6e206279207a65726f000000000000815250620003e460201b60201c565b905092915050565b6000620003dc83836040518060400160405280601e81526020017f536166654d6174683a207375627472616374696f6e206f766572666c6f770000815250620004af60201b60201c565b905092915050565b6000808311829062000494576040517f08c379a00000000000000000000000000000000000000000000000000000000081526004018080602001828103825283818151815260200191508051906020019080838360005b83811015620004585780820151818401526020810190506200043b565b50505050905090810190601f168015620004865780820380516001836020036101000a031916815260200191505b509250505060405180910390fd5b506000838581620004a157fe5b049050809150509392505050565b600083831115829062000560576040517f08c379a00000000000000000000000000000000000000000000000000000000081526004018080602001828103825283818151815260200191508051906020019080838360005b838110156200052457808201518184015260208101905062000507565b50505050905090810190601f168015620005525780820380516001836020036101000a031916815260200191505b509250505060405180910390fd5b5060008385039050809150509392505050565b611b0d80620005836000396000f3fe6080604052600436106100ab5760003560e01c80635a2f3d09116100645780635a2f3d09146102e75780636638a0fa14610343578063d0e30db0146103b8578063d80ccb33146103cf578063e4629f341461040d578063f8b2cb4f1461043a5761019b565b8063026b1d5f146101a05780631959a002146101cb578063313ce56714610248578063330227bf146102735780633ccfd60b146102b95780634e71d92d146102d05761019b565b3661019b5761010534600560003373ffffffffffffffffffffffffffffffffffffffff1673ffffffffffffffffffffffffffffffffffffffff1681526020019081526020016000206001015461049f90919063ffffffff16565b600560003373ffffffffffffffffffffffffffffffffffffffff1673ffffffffffffffffffffffffffffffffffffffff168152602001908152602001600020600101819055503373ffffffffffffffffffffffffffffffffffffffff167fd6717f327e0cb88b4a97a7f67a453e9258252c34937ccbdd86de7cb840e7def3346040518082815260200191505060405180910390a2005b600080fd5b3480156101ac57600080fd5b506101b5610527565b6040518082815260200191505060405180910390f35b3480156101d757600080fd5b5061021a600480360360208110156101ee57600080fd5b81019080803573ffffffffffffffffffffffffffffffffffffffff169060200190929190505050610533565b604051808581526020018481526020018381526020018260ff16815260200194505050505060405180910390f35b34801561025457600080fd5b5061025d610570565b6040518082815260200191505060405180910390f35b34801561027f57600080fd5b50610288610576565b604051808581526020018481526020018360ff1681526020018260ff16815260200194505050505060405180910390f35b3480156102c557600080fd5b506102ce610763565b005b3480156102dc57600080fd5b506102e5610a42565b005b3480156102f357600080fd5b506102fc610dc2565b604051808573ffffffffffffffffffffffffffffffffffffffff1681526020018481526020018360ff1681526020018260ff16815260200194505050505060405180910390f35b34801561034f57600080fd5b5061037f6004803603602081101561036657600080fd5b81019080803560ff169060200190929190505050610e1a565b60405180878152602001868152602001858152602001848152602001838152602001828152602001965050505050505060405180910390f35b3480156103c457600080fd5b506103cd610f85565b005b3480156103db57600080fd5b5061040b600480360360208110156103f257600080fd5b81019080803560ff169060200190929190505050611115565b005b34801561041957600080fd5b506104226112f4565b60405180821515815260200191505060405180910390f35b34801561044657600080fd5b506104896004803603602081101561045d57600080fd5b81019080803573ffffffffffffffffffffffffffffffffffffffff1690602001909291905050506113f8565b6040518082815260200191505060405180910390f35b60008082840190508381101561051d576040517f08c379a000000000000000000000000000000000000000000000000000000000815260040180806020018281038252601b8152602001807f536166654d6174683a206164646974696f6e206f766572666c6f77000000000081525060200191505060405180910390fd5b8091505092915050565b60006001800154905090565b60056020528060005260406000206000915090508060000154908060010154908060020154908060030160009054906101000a900460ff16905084565b60005481565b600080600080600080600160000160009054906101000a900473ffffffffffffffffffffffffffffffffffffffff1673ffffffffffffffffffffffffffffffffffffffff16630902f1ac6040518163ffffffff1660e01b815260040160606040518083038186803b1580156105ea57600080fd5b505afa1580156105fe573d6000803e3d6000fd5b505050506040513d606081101561061457600080fd5b81019080805190602001909291908051906020019092919080519060200190929190505050506dffffffffffffffffffffffffffff1691506dffffffffffffffffffffffffffff1691506106888161067a600054600a0a8561151090919063ffffffff16565b61159690919063ffffffff16565b9050806001800154106106bb576106ac8160018001546115e090919063ffffffff16565b955060019350600092506106dd565b6106d26001800154826115e090919063ffffffff16565b955060009350600192505b60006001800154111561071f5761070160018001548761159690919063ffffffff16565b95506107186127108761151090919063ffffffff16565b955061074e565b61074b61271061073d600054600a0a8961159690919063ffffffff16565b61151090919063ffffffff16565b95505b60029450806001800181905550505090919293565b6000600560003373ffffffffffffffffffffffffffffffffffffffff1673ffffffffffffffffffffffffffffffffffffffff16815260200190815260200160002090506000600160030160008360030160009054906101000a900460ff1660ff1660ff16815260200190815260200160002090506107df6112f4565b5060003373ffffffffffffffffffffffffffffffffffffffff166040516024016040516020818303038152906040527f4e71d92d000000000000000000000000000000000000000000000000000000007bffffffffffffffffffffffffffffffffffffffffffffffffffffffff19166020820180517bffffffffffffffffffffffffffffffffffffffffffffffffffffffff83818316178352505050506040518082805190602001908083835b602083106108af578051825260208201915060208101905060208303925061088c565b6001836020036101000a038019825116818451168082178552505050505050905001915050600060405180830381855af49150503d806000811461090f576040519150601f19603f3d011682016040523d82523d6000602084013e610914565b606091505b505090508061098b576040517f08c379a000000000000000000000000000000000000000000000000000000000815260040180806020018281038252601b8152602001807f436c61696d28292064656c656761746563616c6c206661696c6564000000000081525060200191505060405180910390fd5b60008360000154905060008460000181905550600084600201819055506109c3846000015484600001546115e090919063ffffffff16565b83600001819055506109e6846000015484600101546115e090919063ffffffff16565b83600101819055503373ffffffffffffffffffffffffffffffffffffffff167f884edad9ce6fa2440d8a54cc123490eb96d2768479d49ff9c7366125a9424364826040518082815260200191505060405180910390a250505050565b6000600560003373ffffffffffffffffffffffffffffffffffffffff1673ffffffffffffffffffffffffffffffffffffffff16815260200190815260200160002090506000600160030160008360030160009054906101000a900460ff1660ff1660ff16815260200190815260200160002090506000610aea600054600a0a610adc8460040154866000015461151090919063ffffffff16565b61159690919063ffffffff16565b90508160060160009054906101000a900460ff1615610bd257610b1a8184600001546115e090919063ffffffff16565b8360000181905550610b398183600101546115e090919063ffffffff16565b8260010181905550610b588183600001546115e090919063ffffffff16565b8260000181905550610b778183600301546115e090919063ffffffff16565b82600301819055503373ffffffffffffffffffffffffffffffffffffffff167f72fba0ba07d937c660a3130fca36005c0e476cb97b6f00de413976e37eba9501826040518082815260200191505060405180910390a2610dbd565b82600201548110610cd857610bf48360020154826115e090919063ffffffff16565b90506000811115610cd357610c168183600001546115e090919063ffffffff16565b8260000181905550610c358183600201546115e090919063ffffffff16565b82600201819055503373ffffffffffffffffffffffffffffffffffffffff166108fc829081150290604051600060405180830381858888f19350505050158015610c83573d6000803e3d6000fd5b503373ffffffffffffffffffffffffffffffffffffffff167f619caafabdd75649b302ba8419e48cccf64f37f1983ac4727cfb38b57703ffc9826040518082815260200191505060405180910390a25b610dbc565b610cef8184600201546115e090919063ffffffff16565b9050610d088184600001546115e090919063ffffffff16565b8360000181905550610d278183600101546115e090919063ffffffff16565b8260010181905550610d468183600001546115e090919063ffffffff16565b8260000181905550610d658183600301546115e090919063ffffffff16565b82600301819055503373ffffffffffffffffffffffffffffffffffffffff167f72fba0ba07d937c660a3130fca36005c0e476cb97b6f00de413976e37eba9501826040518082815260200191505060405180910390a25b5b505050565b60018060000160009054906101000a900473ffffffffffffffffffffffffffffffffffffffff16908060010154908060020160009054906101000a900460ff16908060020160019054906101000a900460ff16905084565b600080600080600080600160ff168760ff161480610e3e5750600060ff168760ff16145b610eb0576040517f08c379a000000000000000000000000000000000000000000000000000000000815260040180806020018281038252600e8152602001807f4e6f206d617463682067726f757000000000000000000000000000000000000081525060200191505060405180910390fd5b600160030160008860ff1660ff168152602001908152602001600020600001549550600160030160008860ff1660ff168152602001908152602001600020600101549450600160030160008860ff1660ff168152602001908152602001600020600201549350600160030160008860ff1660ff168152602001908152602001600020600301549250600160030160008860ff1660ff168152602001908152602001600020600401549150600160030160008860ff1660ff16815260200190815260200160002060050154905091939550919395565b6000600560003373ffffffffffffffffffffffffffffffffffffffff1673ffffffffffffffffffffffffffffffffffffffff16815260200190815260200160002090506000600160030160008360030160009054906101000a900460ff1660ff1660ff16815260200190815260200160002090506110016112f4565b5060008260010154905060008360000154111561102157611020610a42565b5b61103881846000015461049f90919063ffffffff16565b8360000181905550611072600054600a0a6110648460040154866000015461151090919063ffffffff16565b61159690919063ffffffff16565b83600201819055506000836001018190555061109b81836000015461049f90919063ffffffff16565b82600001819055506110ba81836001015461049f90919063ffffffff16565b82600101819055503373ffffffffffffffffffffffffffffffffffffffff167fe1fffcc4923d04b559f4d29a8bfc6cda04eb5b0d3c460751c2402c5c5cc9109c826040518082815260200191505060405180910390a2505050565b6000600560003373ffffffffffffffffffffffffffffffffffffffff1673ffffffffffffffffffffffffffffffffffffffff1681526020019081526020016000209050600160ff168260ff1614806111735750600060ff168260ff16145b6111e5576040517f08c379a00000000000000000000000000000000000000000000000000000000081526004018080602001828103825260088152602001807f4e6f2067726f757000000000000000000000000000000000000000000000000081525060200191505060405180910390fd5b60008160000154111561128c576000600160030160008360030160009054906101000a900460ff1660ff1660ff168152602001908152602001600020905061123e826000015482600101546115e090919063ffffffff16565b81600101819055506000600160030160008560ff1660ff16815260200190815260200160002090506112818360000154826001015461049f90919063ffffffff16565b816001018190555050505b818160030160006101000a81548160ff021916908360ff1602179055508160ff163373ffffffffffffffffffffffffffffffffffffffff167f5f5c4506d3b8b5e7b72452d30449b9d4d04c139b159f2dddd40b2c43a2f6b0db60405160405180910390a35050565b60006001806003016000600160ff1660ff16815260200190815260200160002060000154101561132757600090506113f5565b60018060030160008060ff1660ff16815260200190815260200160002060000154101561135757600090506113f5565b600080600080611365610576565b935093509350935060006113c961138660028661049f90919063ffffffff16565b600a0a6113bb600160030160008660ff1660ff168152602001908152602001600020600001548861151090919063ffffffff16565b61159690919063ffffffff16565b90506113d5828261162a565b90506113e183826116b3565b6113eb82826117f2565b6001955050505050505b90565b600080600560008473ffffffffffffffffffffffffffffffffffffffff1673ffffffffffffffffffffffffffffffffffffffff16815260200190815260200160002090506000600160030160008360030160009054906101000a900460ff1660ff1660ff168152602001908152602001600020905060006114a1600054600a0a6114938460040154866000015461151090919063ffffffff16565b61159690919063ffffffff16565b90508160060160009054906101000a900460ff16156114d8576114d18184600001546115e090919063ffffffff16565b9350611508565b61150583600201546114f783866000015461049f90919063ffffffff16565b6115e090919063ffffffff16565b93505b505050919050565b6000808314156115235760009050611590565b600082840290508284828161153457fe5b041461158b576040517f08c379a0000000000000000000000000000000000000000000000000000000008152600401808060200182810382526021815260200180611ab76021913960400191505060405180910390fd5b809150505b92915050565b60006115d883836040518060400160405280601a81526020017f536166654d6174683a206469766973696f6e206279207a65726f000000000000815250611930565b905092915050565b600061162283836040518060400160405280601e81526020017f536166654d6174683a207375627472616374696f6e206f766572666c6f7700008152506119f6565b905092915050565b600080600160030160008560ff1660ff168152602001908152602001600020905060006116688260020154836001015461049f90919063ffffffff16565b9050600061168385846003015461049f90919063ffffffff16565b9050808210156116a7576116a48360030154836115e090919063ffffffff16565b94505b84935050505092915050565b6000600160030160008460ff1660ff16815260200190815260200160002090506116ea82826002015461049f90919063ffffffff16565b816002018190555061170982826000015461049f90919063ffffffff16565b816000018190555060006117418260010154611733600054600a0a8661151090919063ffffffff16565b61159690919063ffffffff16565b90508160060160009054906101000a900460ff16156117cc57808260040154111561178a5761177d8183600401546115e090919063ffffffff16565b82600401819055506117c7565b6117a18260040154826115e090919063ffffffff16565b826004018190555060008260060160006101000a81548160ff0219169083151502179055505b6117ec565b6117e381836004015461049f90919063ffffffff16565b82600401819055505b50505050565b6000600160030160008460ff1660ff168152602001908152602001600020905061182982826003015461049f90919063ffffffff16565b81600301819055506118488282600001546115e090919063ffffffff16565b816000018190555060006118808260010154611872600054600a0a8661151090919063ffffffff16565b61159690919063ffffffff16565b90508160060160009054906101000a900460ff16156118bd576118b081836004015461049f90919063ffffffff16565b826004018190555061192a565b808260040154106118ec576118df8183600401546115e090919063ffffffff16565b8260040181905550611929565b6119038260040154826115e090919063ffffffff16565b826004018190555060018260060160006101000a81548160ff0219169083151502179055505b5b50505050565b600080831182906119dc576040517f08c379a00000000000000000000000000000000000000000000000000000000081526004018080602001828103825283818151815260200191508051906020019080838360005b838110156119a1578082015181840152602081019050611986565b50505050905090810190601f1680156119ce5780820380516001836020036101000a031916815260200191505b509250505060405180910390fd5b5060008385816119e857fe5b049050809150509392505050565b6000838311158290611aa3576040517f08c379a00000000000000000000000000000000000000000000000000000000081526004018080602001828103825283818151815260200191508051906020019080838360005b83811015611a68578082015181840152602081019050611a4d565b50505050905090810190601f168015611a955780820380516001836020036101000a031916815260200191505b509250505060405180910390fd5b506000838503905080915050939250505056fe536166654d6174683a206d756c7469706c69636174696f6e206f766572666c6f77a2646970667358221220d9399968854106ecbb63487773f73a046e2133b29f19028be95ac34970d563e164736f6c63430007000033536166654d6174683a206d756c7469706c69636174696f6e206f766572666c6f77",
  "immutableReferences": {},
  "source": "// SPDX-License-Identifier: MIT\n\npragma solidity ^0.7.0;\n\nimport \"./interfaces/IUniswapV2Pair.sol\";\nimport \"./IMasterMex.sol\";\n\ncontract MasterMex is IMasterMex {\n    using SafeMath for uint256;\n\n    event Deposit(address indexed sender, uint256 amount);\n    event Receive(address indexed sender, uint256 amount);\n    event Withdraw(address indexed sender, uint256 amount);\n    event Reward(address indexed receiver, uint256 amount);\n    event Loss(address indexed receiver, uint256 amount);\n    event SetGroup(address indexed sender, uint8 indexed voteId);\n\n    constructor() {\n        // SWISS-ETH UNI PAIR\n        poolInfo.tokenUniPair = 0xE32479d25b6Cb8c02507c3568813E11A37fa32CA;\n        getPriceInfo();\n    }\n\n    receive() external payable {\n        userInfo[msg.sender].pending = userInfo[msg.sender].pending.add(msg.value);\n\n        emit Receive(msg.sender, msg.value);\n    }\n\n    function setGroup(uint8 _groupId) external {\n        UserInfo storage user = userInfo[msg.sender];\n        require(_groupId == UP || _groupId == DOWN, \"No group\");\n\n        if (user.amount > 0) {\n            GroupInfo storage prevGroup = poolInfo.groups[user.groupId];\n            prevGroup.deposit = prevGroup.deposit.sub(user.amount);\n\n            GroupInfo storage nextGroup = poolInfo.groups[_groupId];\n            nextGroup.deposit = nextGroup.deposit.add(user.amount);\n        }\n        user.groupId = _groupId;\n\n        emit SetGroup(msg.sender, _groupId);\n    }\n\n    function getGroup(uint8 _groupId) public view returns(\n        uint256 totalAmt,\n        uint256 depositAmt,\n        uint256 profitAmt,\n        uint256 lossAmt,\n        uint256 shareProfitPerETH,\n        uint256 extra\n    ) {\n        require(_groupId == UP || _groupId == DOWN, \"No match group\");\n        totalAmt = poolInfo.groups[_groupId].total;\n        depositAmt = poolInfo.groups[_groupId].deposit;\n        profitAmt = poolInfo.groups[_groupId].profit;\n        lossAmt = poolInfo.groups[_groupId].loss;\n        shareProfitPerETH = poolInfo.groups[_groupId].shareProfitPerETH;\n        extra = poolInfo.groups[_groupId].extra;\n    }\n\n    function getPool() public view returns(\n        uint256 priceRatio\n    ) {\n        priceRatio = poolInfo.priceRatio;\n    }\n\n    function deposit() public {\n        UserInfo storage user = userInfo[msg.sender];\n        GroupInfo storage group = poolInfo.groups[user.groupId];\n        predict();\n\n        uint256 _amount = user.pending;\n\n        if (user.amount > 0) {\n            claim();\n        }\n\n        user.amount = user.amount.add(_amount);\n        user.debt = user.amount.mul(group.shareProfitPerETH).div(10**decimals);\n        user.pending = 0;\n        group.total = group.total.add(_amount);\n        group.deposit = group.deposit.add(_amount);\n\n        emit Deposit(msg.sender, _amount);\n    }\n\n    function withdraw() external {\n        UserInfo storage user = userInfo[msg.sender];\n        GroupInfo storage group = poolInfo.groups[user.groupId];\n        predict();\n\n        (bool success,) = address(msg.sender).delegatecall(abi.encodeWithSignature(\"claim()\"));\n        require(success, \"Claim() delegatecall failed\");\n        \n        uint256 withdrawAmount = user.amount;\n        user.amount = 0;\n        user.debt = 0;\n        group.total = group.total.sub(user.amount);\n        group.deposit = group.deposit.sub(user.amount);\n\n        emit Withdraw(msg.sender, withdrawAmount);\n    }\n\n    function claim() public {\n        UserInfo storage user = userInfo[msg.sender];\n        GroupInfo storage group = poolInfo.groups[user.groupId];\n\n        uint256 draftProfit = user.amount.mul(group.shareProfitPerETH).div(10**decimals);\n        if (group.hasNegativeProfit) {\n            user.amount = user.amount.sub(draftProfit);\n            group.deposit = group.deposit.sub(draftProfit);\n\n            group.total = group.total.sub(draftProfit);\n            group.loss = group.loss.sub(draftProfit);\n            \n            emit Loss(msg.sender, draftProfit);\n        } else {\n            if (draftProfit >= user.debt) {\n                draftProfit = draftProfit.sub(user.debt);\n                if (draftProfit > 0) {\n                    group.total = group.total.sub(draftProfit);\n                    group.profit = group.profit.sub(draftProfit);\n\n                    msg.sender.transfer(draftProfit);   // Profit withdrawal\n                    emit Reward(msg.sender, draftProfit);\n                }\n            } else {\n                draftProfit = user.debt.sub(draftProfit);   // this is loss\n                user.amount = user.amount.sub(draftProfit);\n                group.deposit = group.deposit.sub(draftProfit);\n\n                group.total = group.total.sub(draftProfit);\n                group.loss = group.loss.sub(draftProfit);\n\n                emit Loss(msg.sender, draftProfit);\n            }\n        }\n    }\n\n    function getBalance(address _user) public view returns(uint256 total) {\n        UserInfo storage user = userInfo[_user];\n        GroupInfo storage group = poolInfo.groups[user.groupId];\n\n        uint256 draftProfit = user.amount.mul(group.shareProfitPerETH).div(10**decimals);\n        if (group.hasNegativeProfit) {\n            total = user.amount.sub(draftProfit);\n        } else {\n            total = user.amount.add(draftProfit).sub(user.debt);\n        }\n    }\n\n    function getPriceInfo() public returns(uint256 _priceChange, uint256 _precision, uint8 _winGroupId, uint8 _defGroupId) {\n        (uint reserve0, uint reserve1,) = IUniswapV2Pair(poolInfo.tokenUniPair).getReserves();\n        reserve1 = reserve0.mul(10**decimals).div(reserve1);\n        \n        if (poolInfo.priceRatio >= reserve1) {\n            _priceChange = poolInfo.priceRatio.sub(reserve1);\n            _winGroupId = 1;\n            _defGroupId = 0;\n        } else {\n            _priceChange = reserve1.sub(poolInfo.priceRatio);\n            _winGroupId = 0;\n            _defGroupId = 1;\n        }\n\n        if (poolInfo.priceRatio > 0) {\n            _priceChange = _priceChange.div(poolInfo.priceRatio);\n            _priceChange = _priceChange.mul(10**4);\n        } else {\n            _priceChange = _priceChange.div(10**decimals).mul(10**4);\n        }\n        \n        _precision = 2;\n        poolInfo.priceRatio = reserve1;\n    }\n\n    function predict() public returns(bool) {\n        if (poolInfo.groups[UP].total < 1) {\n            return false;\n        }\n        if (poolInfo.groups[DOWN].total < 1) {\n            return false;\n        }\n\n        (uint256 _priceChange, uint256 _precision, uint8 _winGroupId, uint8 _defGroupId) = getPriceInfo();\n        \n        uint256 bounty = _priceChange.mul(poolInfo.groups[_defGroupId].total).div(10**(_precision.add(2)));\n\n        bounty = _maxLossAmount(_defGroupId, bounty);\n        _profit(_winGroupId, bounty);\n        _loss(_defGroupId, bounty);\n        return true;\n    }\n\n    function _loss(uint8 _groupId, uint256 _amount) internal {\n        GroupInfo storage group = poolInfo.groups[_groupId];\n\n        group.loss = group.loss.add(_amount);\n        group.total = group.total.sub(_amount);\n        \n        uint256 newLossShare = _amount.mul(10**decimals).div(group.deposit);\n        if (group.hasNegativeProfit) {\n            group.shareProfitPerETH = group.shareProfitPerETH.add(newLossShare);\n        } else {\n            if (group.shareProfitPerETH >= newLossShare) {\n                group.shareProfitPerETH = group.shareProfitPerETH.sub(newLossShare);\n            } else {\n                group.shareProfitPerETH = newLossShare.sub(group.shareProfitPerETH);\n                group.hasNegativeProfit = true;\n            }\n        }\n    }\n\n    function _profit(uint8 _groupId, uint256 _amount) internal {\n        GroupInfo storage group = poolInfo.groups[_groupId];\n\n        group.profit = group.profit.add(_amount);\n        group.total = group.total.add(_amount);\n        \n        uint256 newProfitShare = _amount.mul(10**decimals).div(group.deposit);\n        if (group.hasNegativeProfit) {\n            if (group.shareProfitPerETH > newProfitShare) {\n                group.shareProfitPerETH = group.shareProfitPerETH.sub(newProfitShare);\n            } else {\n                group.shareProfitPerETH = newProfitShare.sub(group.shareProfitPerETH);\n                group.hasNegativeProfit = false;\n            }\n        } else {\n            group.shareProfitPerETH = group.shareProfitPerETH.add(newProfitShare);\n        }\n    }\n\n    function _maxLossAmount(uint8 _groupId, uint256 _amount) internal view returns(uint256) {\n        GroupInfo storage group = poolInfo.groups[_groupId];\n\n        uint256 available = group.deposit.add(group.profit);\n        uint256 debt = group.loss.add(_amount);\n        if (available < debt) {\n            _amount = available.sub(group.loss);\n        }\n\n        return _amount;\n    }\n}",
  "sourcePath": "/Volumes/Data/Work/Blockchain/defi/dexmex/contracts/MasterMex.sol",
  "compiler": {
    "name": "solc",
    "version": "0.7.0+commit.9e61f92b.Emscripten.clang"
  },
  "schemaVersion": "3.3.3",
  "updatedAt": "2021-01-22T09:24:57.700Z",
  "devdoc": {
    "kind": "dev",
    "methods": {},
    "version": 1
  },
  "userdoc": {
    "kind": "user",
    "methods": {},
    "version": 1
  }
}